{
  "contractName": "IDSLogs",
  "abi": [
    {
      "inputs": [],
      "stateMutability": "nonpayable",
      "type": "constructor"
    },
    {
      "anonymous": false,
      "inputs": [
        {
          "indexed": true,
          "internalType": "string",
          "name": "alertId",
          "type": "string"
        },
        {
          "indexed": true,
          "internalType": "address",
          "name": "reporter",
          "type": "address"
        },
        {
          "indexed": false,
          "internalType": "uint256",
          "name": "timestamp",
          "type": "uint256"
        }
      ],
      "name": "AlertAdded",
      "type": "event"
    },
    {
      "inputs": [
        {
          "internalType": "uint256",
          "name": "",
          "type": "uint256"
        }
      ],
      "name": "alerts",
      "outputs": [
        {
          "internalType": "string",
          "name": "alertId",
          "type": "string"
        },
        {
          "internalType": "string",
          "name": "sourceType",
          "type": "string"
        },
        {
          "internalType": "string",
          "name": "logData",
          "type": "string"
        },
        {
          "internalType": "uint256",
          "name": "timestamp",
          "type": "uint256"
        },
        {
          "internalType": "address",
          "name": "reporter",
          "type": "address"
        }
      ],
      "stateMutability": "view",
      "type": "function",
      "constant": true
    },
    {
      "inputs": [
        {
          "internalType": "address",
          "name": "",
          "type": "address"
        }
      ],
      "name": "isTrustedReporter",
      "outputs": [
        {
          "internalType": "bool",
          "name": "",
          "type": "bool"
        }
      ],
      "stateMutability": "view",
      "type": "function",
      "constant": true
    },
    {
      "inputs": [],
      "name": "owner",
      "outputs": [
        {
          "internalType": "address",
          "name": "",
          "type": "address"
        }
      ],
      "stateMutability": "view",
      "type": "function",
      "constant": true
    },
    {
      "inputs": [
        {
          "internalType": "address",
          "name": "_reporter",
          "type": "address"
        }
      ],
      "name": "addTrustedReporter",
      "outputs": [],
      "stateMutability": "nonpayable",
      "type": "function"
    },
    {
      "inputs": [
        {
          "internalType": "address",
          "name": "_reporter",
          "type": "address"
        }
      ],
      "name": "removeTrustedReporter",
      "outputs": [],
      "stateMutability": "nonpayable",
      "type": "function"
    },
    {
      "inputs": [
        {
          "internalType": "string",
          "name": "_alertId",
          "type": "string"
        },
        {
          "internalType": "string",
          "name": "_sourceType",
          "type": "string"
        },
        {
          "internalType": "string",
          "name": "_logData",
          "type": "string"
        }
      ],
      "name": "addAlert",
      "outputs": [],
      "stateMutability": "nonpayable",
      "type": "function"
    },
    {
      "inputs": [
        {
          "internalType": "uint256",
          "name": "_index",
          "type": "uint256"
        }
      ],
      "name": "getAlert",
      "outputs": [
        {
          "components": [
            {
              "internalType": "string",
              "name": "alertId",
              "type": "string"
            },
            {
              "internalType": "string",
              "name": "sourceType",
              "type": "string"
            },
            {
              "internalType": "string",
              "name": "logData",
              "type": "string"
            },
            {
              "internalType": "uint256",
              "name": "timestamp",
              "type": "uint256"
            },
            {
              "internalType": "address",
              "name": "reporter",
              "type": "address"
            }
          ],
          "internalType": "struct IDSLogs.Alert",
          "name": "",
          "type": "tuple"
        }
      ],
      "stateMutability": "view",
      "type": "function",
      "constant": true
    },
    {
      "inputs": [],
      "name": "getAlertsCount",
      "outputs": [
        {
          "internalType": "uint256",
          "name": "",
          "type": "uint256"
        }
      ],
      "stateMutability": "view",
      "type": "function",
      "constant": true
    }
  ],
  "bytecode": "0x608060405234801561001057600080fd5b5033600260006101000a81548173ffffffffffffffffffffffffffffffffffffffff021916908373ffffffffffffffffffffffffffffffffffffffff16021790555060018060003373ffffffffffffffffffffffffffffffffffffffff1673ffffffffffffffffffffffffffffffffffffffff16815260200190815260200160002060006101000a81548160ff02191690831515021790555061165d806100b86000396000f3fe608060405234801561001057600080fd5b50600436106100875760003560e01c8063a1fcc73f1161005b578063a1fcc73f1461013e578063b16925ae1461015a578063b339ab2114610176578063c7701efc1461019257610087565b806259131c1461008c578063171d073a146100bc57806385081886146100f05780638da5cb5b14610120575b600080fd5b6100a660048036038101906100a19190610bf5565b6101b0565b6040516100b39190610c3d565b60405180910390f35b6100d660048036038101906100d19190610c8e565b6101d0565b6040516100e7959493929190610d69565b60405180910390f35b61010a60048036038101906101059190610c8e565b6103ce565b6040516101179190610ebd565b60405180910390f35b610128610667565b6040516101359190610edf565b60405180910390f35b61015860048036038101906101539190610bf5565b61068d565b005b610174600480360381019061016f9190610bf5565b6107e6565b005b610190600480360381019061018b919061102f565b610940565b005b61019a610b32565b6040516101a791906110d6565b60405180910390f35b60016020528060005260406000206000915054906101000a900460ff1681565b600081815481106101e057600080fd5b906000526020600020906005020160009150905080600001805461020390611120565b80601f016020809104026020016040519081016040528092919081815260200182805461022f90611120565b801561027c5780601f106102515761010080835404028352916020019161027c565b820191906000526020600020905b81548152906001019060200180831161025f57829003601f168201915b50505050509080600101805461029190611120565b80601f01602080910402602001604051908101604052809291908181526020018280546102bd90611120565b801561030a5780601f106102df5761010080835404028352916020019161030a565b820191906000526020600020905b8154815290600101906020018083116102ed57829003601f168201915b50505050509080600201805461031f90611120565b80601f016020809104026020016040519081016040528092919081815260200182805461034b90611120565b80156103985780601f1061036d57610100808354040283529160200191610398565b820191906000526020600020905b81548152906001019060200180831161037b57829003601f168201915b5050505050908060030154908060040160009054906101000a900473ffffffffffffffffffffffffffffffffffffffff16905085565b6103d6610b3e565b600080549050821061041d576040517f08c379a00000000000000000000000000000000000000000000000000000000081526004016104149061119d565b60405180910390fd5b60008281548110610431576104306111bd565b5b90600052602060002090600502016040518060a001604052908160008201805461045a90611120565b80601f016020809104026020016040519081016040528092919081815260200182805461048690611120565b80156104d35780601f106104a8576101008083540402835291602001916104d3565b820191906000526020600020905b8154815290600101906020018083116104b657829003601f168201915b505050505081526020016001820180546104ec90611120565b80601f016020809104026020016040519081016040528092919081815260200182805461051890611120565b80156105655780601f1061053a57610100808354040283529160200191610565565b820191906000526020600020905b81548152906001019060200180831161054857829003601f168201915b5050505050815260200160028201805461057e90611120565b80601f01602080910402602001604051908101604052809291908181526020018280546105aa90611120565b80156105f75780601f106105cc576101008083540402835291602001916105f7565b820191906000526020600020905b8154815290600101906020018083116105da57829003601f168201915b50505050508152602001600382015481526020016004820160009054906101000a900473ffffffffffffffffffffffffffffffffffffffff1673ffffffffffffffffffffffffffffffffffffffff1673ffffffffffffffffffffffffffffffffffffffff16815250509050919050565b600260009054906101000a900473ffffffffffffffffffffffffffffffffffffffff1681565b600260009054906101000a900473ffffffffffffffffffffffffffffffffffffffff1673ffffffffffffffffffffffffffffffffffffffff163373ffffffffffffffffffffffffffffffffffffffff161461071d576040517f08c379a00000000000000000000000000000000000000000000000000000000081526004016107149061125e565b60405180910390fd5b600073ffffffffffffffffffffffffffffffffffffffff168173ffffffffffffffffffffffffffffffffffffffff160361078c576040517f08c379a0000000000000000000000000000000000000000000000000000000008152600401610783906112ca565b60405180910390fd5b60018060008373ffffffffffffffffffffffffffffffffffffffff1673ffffffffffffffffffffffffffffffffffffffff16815260200190815260200160002060006101000a81548160ff02191690831515021790555050565b600260009054906101000a900473ffffffffffffffffffffffffffffffffffffffff1673ffffffffffffffffffffffffffffffffffffffff163373ffffffffffffffffffffffffffffffffffffffff1614610876576040517f08c379a000000000000000000000000000000000000000000000000000000000815260040161086d9061125e565b60405180910390fd5b600073ffffffffffffffffffffffffffffffffffffffff168173ffffffffffffffffffffffffffffffffffffffff16036108e5576040517f08c379a00000000000000000000000000000000000000000000000000000000081526004016108dc906112ca565b60405180910390fd5b6000600160008373ffffffffffffffffffffffffffffffffffffffff1673ffffffffffffffffffffffffffffffffffffffff16815260200190815260200160002060006101000a81548160ff02191690831515021790555050565b600160003373ffffffffffffffffffffffffffffffffffffffff1673ffffffffffffffffffffffffffffffffffffffff16815260200190815260200160002060009054906101000a900460ff166109cc576040517f08c379a00000000000000000000000000000000000000000000000000000000081526004016109c390611336565b60405180910390fd5b60006040518060a001604052808581526020018481526020018381526020014281526020013373ffffffffffffffffffffffffffffffffffffffff1681525090806001815401808255809150506001900390600052602060002090600502016000909190919091506000820151816000019081610a499190611502565b506020820151816001019081610a5f9190611502565b506040820151816002019081610a759190611502565b506060820151816003015560808201518160040160006101000a81548173ffffffffffffffffffffffffffffffffffffffff021916908373ffffffffffffffffffffffffffffffffffffffff16021790555050503373ffffffffffffffffffffffffffffffffffffffff1683604051610aee9190611610565b60405180910390207fc307e9d6a7a280c009b0a7079d13a40fff89900d78f9928e1056318948a4be6942604051610b2591906110d6565b60405180910390a3505050565b60008080549050905090565b6040518060a0016040528060608152602001606081526020016060815260200160008152602001600073ffffffffffffffffffffffffffffffffffffffff1681525090565b6000604051905090565b600080fd5b600080fd5b600073ffffffffffffffffffffffffffffffffffffffff82169050919050565b6000610bc282610b97565b9050919050565b610bd281610bb7565b8114610bdd57600080fd5b50565b600081359050610bef81610bc9565b92915050565b600060208284031215610c0b57610c0a610b8d565b5b6000610c1984828501610be0565b91505092915050565b60008115159050919050565b610c3781610c22565b82525050565b6000602082019050610c526000830184610c2e565b92915050565b6000819050919050565b610c6b81610c58565b8114610c7657600080fd5b50565b600081359050610c8881610c62565b92915050565b600060208284031215610ca457610ca3610b8d565b5b6000610cb284828501610c79565b91505092915050565b600081519050919050565b600082825260208201905092915050565b60005b83811015610cf5578082015181840152602081019050610cda565b60008484015250505050565b6000601f19601f8301169050919050565b6000610d1d82610cbb565b610d278185610cc6565b9350610d37818560208601610cd7565b610d4081610d01565b840191505092915050565b610d5481610c58565b82525050565b610d6381610bb7565b82525050565b600060a0820190508181036000830152610d838188610d12565b90508181036020830152610d978187610d12565b90508181036040830152610dab8186610d12565b9050610dba6060830185610d4b565b610dc76080830184610d5a565b9695505050505050565b600082825260208201905092915050565b6000610ded82610cbb565b610df78185610dd1565b9350610e07818560208601610cd7565b610e1081610d01565b840191505092915050565b610e2481610c58565b82525050565b610e3381610bb7565b82525050565b600060a0830160008301518482036000860152610e568282610de2565b91505060208301518482036020860152610e708282610de2565b91505060408301518482036040860152610e8a8282610de2565b9150506060830151610e9f6060860182610e1b565b506080830151610eb26080860182610e2a565b508091505092915050565b60006020820190508181036000830152610ed78184610e39565b905092915050565b6000602082019050610ef46000830184610d5a565b92915050565b600080fd5b600080fd5b7f4e487b7100000000000000000000000000000000000000000000000000000000600052604160045260246000fd5b610f3c82610d01565b810181811067ffffffffffffffff82111715610f5b57610f5a610f04565b5b80604052505050565b6000610f6e610b83565b9050610f7a8282610f33565b919050565b600067ffffffffffffffff821115610f9a57610f99610f04565b5b610fa382610d01565b9050602081019050919050565b82818337600083830152505050565b6000610fd2610fcd84610f7f565b610f64565b905082815260208101848484011115610fee57610fed610eff565b5b610ff9848285610fb0565b509392505050565b600082601f83011261101657611015610efa565b5b8135611026848260208601610fbf565b91505092915050565b60008060006060848603121561104857611047610b8d565b5b600084013567ffffffffffffffff81111561106657611065610b92565b5b61107286828701611001565b935050602084013567ffffffffffffffff81111561109357611092610b92565b5b61109f86828701611001565b925050604084013567ffffffffffffffff8111156110c0576110bf610b92565b5b6110cc86828701611001565b9150509250925092565b60006020820190506110eb6000830184610d4b565b92915050565b7f4e487b7100000000000000000000000000000000000000000000000000000000600052602260045260246000fd5b6000600282049050600182168061113857607f821691505b60208210810361114b5761114a6110f1565b5b50919050565b7f496e646578206f7574206f6620626f756e647300000000000000000000000000600082015250565b6000611187601383610cc6565b915061119282611151565b602082019050919050565b600060208201905081810360008301526111b68161117a565b9050919050565b7f4e487b7100000000000000000000000000000000000000000000000000000000600052603260045260246000fd5b7f4f6e6c7920746865206f776e65722063616e20706572666f726d20746869732060008201527f616374696f6e0000000000000000000000000000000000000000000000000000602082015250565b6000611248602683610cc6565b9150611253826111ec565b604082019050919050565b600060208201905081810360008301526112778161123b565b9050919050565b7f496e76616c696420616464726573730000000000000000000000000000000000600082015250565b60006112b4600f83610cc6565b91506112bf8261127e565b602082019050919050565b600060208201905081810360008301526112e3816112a7565b9050919050565b7f4e6f7420612074727573746564207265706f7274657200000000000000000000600082015250565b6000611320601683610cc6565b915061132b826112ea565b602082019050919050565b6000602082019050818103600083015261134f81611313565b9050919050565b60008190508160005260206000209050919050565b60006020601f8301049050919050565b600082821b905092915050565b6000600883026113b87fffffffffffffffffffffffffffffffffffffffffffffffffffffffffffffffff8261137b565b6113c2868361137b565b95508019841693508086168417925050509392505050565b6000819050919050565b60006113ff6113fa6113f584610c58565b6113da565b610c58565b9050919050565b6000819050919050565b611419836113e4565b61142d61142582611406565b848454611388565b825550505050565b600090565b611442611435565b61144d818484611410565b505050565b5b818110156114715761146660008261143a565b600181019050611453565b5050565b601f8211156114b65761148781611356565b6114908461136b565b8101602085101561149f578190505b6114b36114ab8561136b565b830182611452565b50505b505050565b600082821c905092915050565b60006114d9600019846008026114bb565b1980831691505092915050565b60006114f283836114c8565b9150826002028217905092915050565b61150b82610cbb565b67ffffffffffffffff81111561152457611523610f04565b5b61152e8254611120565b611539828285611475565b600060209050601f83116001811461156c576000841561155a578287015190505b61156485826114e6565b8655506115cc565b601f19841661157a86611356565b60005b828110156115a25784890151825560018201915060208501945060208101905061157d565b868310156115bf57848901516115bb601f8916826114c8565b8355505b6001600288020188555050505b505050505050565b600081905092915050565b60006115ea82610cbb565b6115f481856115d4565b9350611604818560208601610cd7565b80840191505092915050565b600061161c82846115df565b91508190509291505056fea2646970667358221220945958ce16c5c563e47b9a7712478a8ef9755055889d4d443057d506f864be6564736f6c63430008130033",
  "immutableReferences": {},
  "source": "// SPDX-License-Identifier: MIT\r\npragma solidity ^0.8.19;\r\n\r\n/**\r\n * @title IDSLogs\r\n * @dev A smart contract to store and manage immutable security logs on the Ethereum blockchain.\r\n * This prevents attackers from tampering with forensic evidence.\r\n */\r\ncontract IDSLogs {\r\n    // A struct to represent a single security alert entry.\r\n    // Structs are custom data types that group multiple variables.\r\n    struct Alert {\r\n        // A unique identifier for the alert.\r\n        string alertId;\r\n        // The type of the source that generated the alert (e.g., \"Firewall\", \"Web Server\", \"IDS\").\r\n        string sourceType;\r\n        // The raw log data or a summary of the event.\r\n        string logData;\r\n        // The Unix timestamp when the alert was logged on the blockchain.\r\n        uint256 timestamp;\r\n        // The Ethereum address of the entity that reported the alert.\r\n        address reporter;\r\n    }\r\n\r\n    // A dynamic array to store all the security alerts.\r\n    // The `public` visibility automatically creates a getter function to read the array.\r\n    Alert[] public alerts;\r\n\r\n    // An event to signal that a new alert has been successfully added to the blockchain.\r\n    // Events are useful for off-chain applications (like your backend and frontend)\r\n    // to efficiently listen for new data without constantly polling.\r\n    event AlertAdded(\r\n        string indexed alertId,\r\n        address indexed reporter,\r\n        uint256 timestamp\r\n    );\r\n\r\n    // A mapping to keep track of trusted entities (e.g., specific IDS instances or server agents)\r\n    // that are allowed to report alerts.\r\n    // The key is an address, and the value is a boolean indicating if it's trusted.\r\n    mapping(address => bool) public isTrustedReporter;\r\n\r\n    // The address of the contract's owner. This is typically the address that deployed the contract.\r\n    address public owner;\r\n\r\n    // A modifier is a piece of code that can be used to change the behavior of functions.\r\n    // This one ensures a function can only be called by the contract owner.\r\n    modifier onlyOwner() {\r\n        require(msg.sender == owner, \"Only the owner can perform this action\");\r\n        _; // The `_` tells the compiler to run the rest of the function's code.\r\n    }\r\n\r\n    // The constructor is a special function that runs only once when the contract is deployed.\r\n    // It sets the `owner` to the address that deployed it.\r\n    constructor() {\r\n        owner = msg.sender;\r\n        isTrustedReporter[msg.sender] = true;\r\n    }\r\n\r\n    /**\r\n     * @dev Function to add a new trusted reporter.\r\n     * Only the contract owner can call this function.\r\n     * @param _reporter The Ethereum address to be granted trusted reporter status.\r\n     */\r\n    function addTrustedReporter(address _reporter) public onlyOwner {\r\n        require(_reporter != address(0), \"Invalid address\");\r\n        isTrustedReporter[_reporter] = true;\r\n    }\r\n\r\n    /**\r\n     * @dev Function to revoke the trusted status of a reporter.\r\n     * Only the contract owner can call this function.\r\n     * @param _reporter The Ethereum address whose trusted status should be removed.\r\n     */\r\n    function removeTrustedReporter(address _reporter) public onlyOwner {\r\n        require(_reporter != address(0), \"Invalid address\");\r\n        isTrustedReporter[_reporter] = false;\r\n    }\r\n\r\n    /**\r\n     * @dev The main function to log a new security alert on the blockchain.\r\n     * This function can only be called by a trusted reporter.\r\n     * @param _alertId The unique ID for the alert.\r\n     * @param _sourceType The type of the alert source.\r\n     * @param _logData The raw log data.\r\n     */\r\n    function addAlert(\r\n        string memory _alertId,\r\n        string memory _sourceType,\r\n        string memory _logData\r\n    ) public {\r\n        // A require statement checks for a condition and reverts the transaction if it's false.\r\n        // This ensures only trusted reporters can add alerts.\r\n        require(isTrustedReporter[msg.sender], \"Not a trusted reporter\");\r\n        \r\n        // Push the new alert to the `alerts` array.\r\n        alerts.push(\r\n            Alert({\r\n                alertId: _alertId,\r\n                sourceType: _sourceType,\r\n                logData: _logData,\r\n                timestamp: block.timestamp,\r\n                reporter: msg.sender\r\n            })\r\n        );\r\n        \r\n        // Emit the `AlertAdded` event to make the new entry easily discoverable.\r\n        emit AlertAdded(_alertId, msg.sender, block.timestamp);\r\n    }\r\n\r\n    /**\r\n     * @dev A view function to get a specific alert by its index.\r\n     * 'view' functions don't modify the state and are free to call.\r\n     * @param _index The index of the alert in the `alerts` array.\r\n     * @return The Alert struct at the given index.\r\n     */\r\n    function getAlert(uint256 _index) public view returns (Alert memory) {\r\n        require(_index < alerts.length, \"Index out of bounds\");\r\n        return alerts[_index];\r\n    }\r\n\r\n    function getAlertsCount() public view returns (uint256){\r\n        return alerts.length;\r\n    }\r\n}",
  "sourcePath": "E:\\Major-Project\\contracts\\IDSLogs.sol",
  "compiler": {
    "name": "solc",
    "version": "0.8.19+commit.7dd6d404.Emscripten.clang"
  },
  "schemaVersion": "3.4.16",
  "updatedAt": "2025-10-03T09:38:46.952Z",
  "networkType": "ethereum",
  "devdoc": {
    "details": "A smart contract to store and manage immutable security logs on the Ethereum blockchain. This prevents attackers from tampering with forensic evidence.",
    "kind": "dev",
    "methods": {
      "addAlert(string,string,string)": {
        "details": "The main function to log a new security alert on the blockchain. This function can only be called by a trusted reporter.",
        "params": {
          "_alertId": "The unique ID for the alert.",
          "_logData": "The raw log data.",
          "_sourceType": "The type of the alert source."
        }
      },
      "addTrustedReporter(address)": {
        "details": "Function to add a new trusted reporter. Only the contract owner can call this function.",
        "params": {
          "_reporter": "The Ethereum address to be granted trusted reporter status."
        }
      },
      "getAlert(uint256)": {
        "details": "A view function to get a specific alert by its index. 'view' functions don't modify the state and are free to call.",
        "params": {
          "_index": "The index of the alert in the `alerts` array."
        },
        "returns": {
          "_0": "The Alert struct at the given index."
        }
      },
      "removeTrustedReporter(address)": {
        "details": "Function to revoke the trusted status of a reporter. Only the contract owner can call this function.",
        "params": {
          "_reporter": "The Ethereum address whose trusted status should be removed."
        }
      }
    },
    "title": "IDSLogs",
    "version": 1
  },
  "userdoc": {
    "kind": "user",
    "methods": {},
    "version": 1
  }
}