{
  "contractName": "IDSLogs",
  "abi": [
    {
      "inputs": [],
      "stateMutability": "nonpayable",
      "type": "constructor"
    },
    {
      "anonymous": false,
      "inputs": [
        {
          "indexed": true,
          "internalType": "string",
          "name": "alertId",
          "type": "string"
        },
        {
          "indexed": true,
          "internalType": "address",
          "name": "reporter",
          "type": "address"
        },
        {
          "indexed": false,
          "internalType": "uint256",
          "name": "timestamp",
          "type": "uint256"
        }
      ],
      "name": "AlertAdded",
      "type": "event"
    },
    {
      "inputs": [
        {
          "internalType": "uint256",
          "name": "",
          "type": "uint256"
        }
      ],
      "name": "alerts",
      "outputs": [
        {
          "internalType": "string",
          "name": "alertId",
          "type": "string"
        },
        {
          "internalType": "string",
          "name": "sourceType",
          "type": "string"
        },
        {
          "internalType": "string",
          "name": "logData",
          "type": "string"
        },
        {
          "internalType": "uint256",
          "name": "timestamp",
          "type": "uint256"
        },
        {
          "internalType": "address",
          "name": "reporter",
          "type": "address"
        },
        {
          "internalType": "bool",
          "name": "isSuspecious",
          "type": "bool"
        }
      ],
      "stateMutability": "view",
      "type": "function",
      "constant": true
    },
    {
      "inputs": [
        {
          "internalType": "address",
          "name": "",
          "type": "address"
        }
      ],
      "name": "isTrustedReporter",
      "outputs": [
        {
          "internalType": "bool",
          "name": "",
          "type": "bool"
        }
      ],
      "stateMutability": "view",
      "type": "function",
      "constant": true
    },
    {
      "inputs": [],
      "name": "owner",
      "outputs": [
        {
          "internalType": "address",
          "name": "",
          "type": "address"
        }
      ],
      "stateMutability": "view",
      "type": "function",
      "constant": true
    },
    {
      "inputs": [
        {
          "internalType": "address",
          "name": "_reporter",
          "type": "address"
        }
      ],
      "name": "addTrustedReporter",
      "outputs": [],
      "stateMutability": "nonpayable",
      "type": "function"
    },
    {
      "inputs": [
        {
          "internalType": "address",
          "name": "_reporter",
          "type": "address"
        }
      ],
      "name": "removeTrustedReporter",
      "outputs": [],
      "stateMutability": "nonpayable",
      "type": "function"
    },
    {
      "inputs": [
        {
          "internalType": "string",
          "name": "_alertId",
          "type": "string"
        },
        {
          "internalType": "string",
          "name": "_sourceType",
          "type": "string"
        },
        {
          "internalType": "string",
          "name": "_logData",
          "type": "string"
        },
        {
          "internalType": "bool",
          "name": "_isSuspecious",
          "type": "bool"
        }
      ],
      "name": "addAlert",
      "outputs": [],
      "stateMutability": "nonpayable",
      "type": "function"
    },
    {
      "inputs": [
        {
          "internalType": "uint256",
          "name": "_index",
          "type": "uint256"
        }
      ],
      "name": "getAlert",
      "outputs": [
        {
          "components": [
            {
              "internalType": "string",
              "name": "alertId",
              "type": "string"
            },
            {
              "internalType": "string",
              "name": "sourceType",
              "type": "string"
            },
            {
              "internalType": "string",
              "name": "logData",
              "type": "string"
            },
            {
              "internalType": "uint256",
              "name": "timestamp",
              "type": "uint256"
            },
            {
              "internalType": "address",
              "name": "reporter",
              "type": "address"
            },
            {
              "internalType": "bool",
              "name": "isSuspecious",
              "type": "bool"
            }
          ],
          "internalType": "struct IDSLogs.Alert",
          "name": "",
          "type": "tuple"
        }
      ],
      "stateMutability": "view",
      "type": "function",
      "constant": true
    },
    {
      "inputs": [],
      "name": "getAlertsCount",
      "outputs": [
        {
          "internalType": "uint256",
          "name": "",
          "type": "uint256"
        }
      ],
      "stateMutability": "view",
      "type": "function",
      "constant": true
    }
  ],
  "bytecode": "0x608060405234801561001057600080fd5b5033600260006101000a81548173ffffffffffffffffffffffffffffffffffffffff021916908373ffffffffffffffffffffffffffffffffffffffff16021790555060018060003373ffffffffffffffffffffffffffffffffffffffff1673ffffffffffffffffffffffffffffffffffffffff16815260200190815260200160002060006101000a81548160ff02191690831515021790555061172e806100b86000396000f3fe608060405234801561001057600080fd5b50600436106100875760003560e01c80638da5cb5b1161005b5780638da5cb5b1461013d578063a1fcc73f1461015b578063b16925ae14610177578063c7701efc1461019357610087565b806259131c1461008c578063171d073a146100bc5780631cac804b146100f1578063850818861461010d575b600080fd5b6100a660048036038101906100a19190610c56565b6101b1565b6040516100b39190610c9e565b60405180910390f35b6100d660048036038101906100d19190610cef565b6101d1565b6040516100e896959493929190610dca565b60405180910390f35b61010b60048036038101906101069190610fa1565b6103e2565b005b61012760048036038101906101229190610cef565b6105fd565b604051610134919061116a565b60405180910390f35b6101456108b1565b604051610152919061118c565b60405180910390f35b61017560048036038101906101709190610c56565b6108d7565b005b610191600480360381019061018c9190610c56565b610a30565b005b61019b610b8a565b6040516101a891906111a7565b60405180910390f35b60016020528060005260406000206000915054906101000a900460ff1681565b600081815481106101e157600080fd5b9060005260206000209060050201600091509050806000018054610204906111f1565b80601f0160208091040260200160405190810160405280929190818152602001828054610230906111f1565b801561027d5780601f106102525761010080835404028352916020019161027d565b820191906000526020600020905b81548152906001019060200180831161026057829003601f168201915b505050505090806001018054610292906111f1565b80601f01602080910402602001604051908101604052809291908181526020018280546102be906111f1565b801561030b5780601f106102e05761010080835404028352916020019161030b565b820191906000526020600020905b8154815290600101906020018083116102ee57829003601f168201915b505050505090806002018054610320906111f1565b80601f016020809104026020016040519081016040528092919081815260200182805461034c906111f1565b80156103995780601f1061036e57610100808354040283529160200191610399565b820191906000526020600020905b81548152906001019060200180831161037c57829003601f168201915b5050505050908060030154908060040160009054906101000a900473ffffffffffffffffffffffffffffffffffffffff16908060040160149054906101000a900460ff16905086565b600160003373ffffffffffffffffffffffffffffffffffffffff1673ffffffffffffffffffffffffffffffffffffffff16815260200190815260200160002060009054906101000a900460ff1661046e576040517f08c379a00000000000000000000000000000000000000000000000000000000081526004016104659061126e565b60405180910390fd5b60006040518060c001604052808681526020018581526020018481526020014281526020013373ffffffffffffffffffffffffffffffffffffffff168152602001831515815250908060018154018082558091505060019003906000526020600020906005020160009091909190915060008201518160000190816104f3919061143a565b506020820151816001019081610509919061143a565b50604082015181600201908161051f919061143a565b506060820151816003015560808201518160040160006101000a81548173ffffffffffffffffffffffffffffffffffffffff021916908373ffffffffffffffffffffffffffffffffffffffff16021790555060a08201518160040160146101000a81548160ff02191690831515021790555050503373ffffffffffffffffffffffffffffffffffffffff16846040516105b89190611548565b60405180910390207fc307e9d6a7a280c009b0a7079d13a40fff89900d78f9928e1056318948a4be69426040516105ef91906111a7565b60405180910390a350505050565b610605610b96565b600080549050821061064c576040517f08c379a0000000000000000000000000000000000000000000000000000000008152600401610643906115ab565b60405180910390fd5b600082815481106106605761065f6115cb565b5b90600052602060002090600502016040518060c0016040529081600082018054610689906111f1565b80601f01602080910402602001604051908101604052809291908181526020018280546106b5906111f1565b80156107025780601f106106d757610100808354040283529160200191610702565b820191906000526020600020905b8154815290600101906020018083116106e557829003601f168201915b5050505050815260200160018201805461071b906111f1565b80601f0160208091040260200160405190810160405280929190818152602001828054610747906111f1565b80156107945780601f1061076957610100808354040283529160200191610794565b820191906000526020600020905b81548152906001019060200180831161077757829003601f168201915b505050505081526020016002820180546107ad906111f1565b80601f01602080910402602001604051908101604052809291908181526020018280546107d9906111f1565b80156108265780601f106107fb57610100808354040283529160200191610826565b820191906000526020600020905b81548152906001019060200180831161080957829003601f168201915b50505050508152602001600382015481526020016004820160009054906101000a900473ffffffffffffffffffffffffffffffffffffffff1673ffffffffffffffffffffffffffffffffffffffff1673ffffffffffffffffffffffffffffffffffffffff1681526020016004820160149054906101000a900460ff1615151515815250509050919050565b600260009054906101000a900473ffffffffffffffffffffffffffffffffffffffff1681565b600260009054906101000a900473ffffffffffffffffffffffffffffffffffffffff1673ffffffffffffffffffffffffffffffffffffffff163373ffffffffffffffffffffffffffffffffffffffff1614610967576040517f08c379a000000000000000000000000000000000000000000000000000000000815260040161095e9061166c565b60405180910390fd5b600073ffffffffffffffffffffffffffffffffffffffff168173ffffffffffffffffffffffffffffffffffffffff16036109d6576040517f08c379a00000000000000000000000000000000000000000000000000000000081526004016109cd906116d8565b60405180910390fd5b60018060008373ffffffffffffffffffffffffffffffffffffffff1673ffffffffffffffffffffffffffffffffffffffff16815260200190815260200160002060006101000a81548160ff02191690831515021790555050565b600260009054906101000a900473ffffffffffffffffffffffffffffffffffffffff1673ffffffffffffffffffffffffffffffffffffffff163373ffffffffffffffffffffffffffffffffffffffff1614610ac0576040517f08c379a0000000000000000000000000000000000000000000000000000000008152600401610ab79061166c565b60405180910390fd5b600073ffffffffffffffffffffffffffffffffffffffff168173ffffffffffffffffffffffffffffffffffffffff1603610b2f576040517f08c379a0000000000000000000000000000000000000000000000000000000008152600401610b26906116d8565b60405180910390fd5b6000600160008373ffffffffffffffffffffffffffffffffffffffff1673ffffffffffffffffffffffffffffffffffffffff16815260200190815260200160002060006101000a81548160ff02191690831515021790555050565b60008080549050905090565b6040518060c0016040528060608152602001606081526020016060815260200160008152602001600073ffffffffffffffffffffffffffffffffffffffff1681526020016000151581525090565b6000604051905090565b600080fd5b600080fd5b600073ffffffffffffffffffffffffffffffffffffffff82169050919050565b6000610c2382610bf8565b9050919050565b610c3381610c18565b8114610c3e57600080fd5b50565b600081359050610c5081610c2a565b92915050565b600060208284031215610c6c57610c6b610bee565b5b6000610c7a84828501610c41565b91505092915050565b60008115159050919050565b610c9881610c83565b82525050565b6000602082019050610cb36000830184610c8f565b92915050565b6000819050919050565b610ccc81610cb9565b8114610cd757600080fd5b50565b600081359050610ce981610cc3565b92915050565b600060208284031215610d0557610d04610bee565b5b6000610d1384828501610cda565b91505092915050565b600081519050919050565b600082825260208201905092915050565b60005b83811015610d56578082015181840152602081019050610d3b565b60008484015250505050565b6000601f19601f8301169050919050565b6000610d7e82610d1c565b610d888185610d27565b9350610d98818560208601610d38565b610da181610d62565b840191505092915050565b610db581610cb9565b82525050565b610dc481610c18565b82525050565b600060c0820190508181036000830152610de48189610d73565b90508181036020830152610df88188610d73565b90508181036040830152610e0c8187610d73565b9050610e1b6060830186610dac565b610e286080830185610dbb565b610e3560a0830184610c8f565b979650505050505050565b600080fd5b600080fd5b7f4e487b7100000000000000000000000000000000000000000000000000000000600052604160045260246000fd5b610e8282610d62565b810181811067ffffffffffffffff82111715610ea157610ea0610e4a565b5b80604052505050565b6000610eb4610be4565b9050610ec08282610e79565b919050565b600067ffffffffffffffff821115610ee057610edf610e4a565b5b610ee982610d62565b9050602081019050919050565b82818337600083830152505050565b6000610f18610f1384610ec5565b610eaa565b905082815260208101848484011115610f3457610f33610e45565b5b610f3f848285610ef6565b509392505050565b600082601f830112610f5c57610f5b610e40565b5b8135610f6c848260208601610f05565b91505092915050565b610f7e81610c83565b8114610f8957600080fd5b50565b600081359050610f9b81610f75565b92915050565b60008060008060808587031215610fbb57610fba610bee565b5b600085013567ffffffffffffffff811115610fd957610fd8610bf3565b5b610fe587828801610f47565b945050602085013567ffffffffffffffff81111561100657611005610bf3565b5b61101287828801610f47565b935050604085013567ffffffffffffffff81111561103357611032610bf3565b5b61103f87828801610f47565b925050606061105087828801610f8c565b91505092959194509250565b600082825260208201905092915050565b600061107882610d1c565b611082818561105c565b9350611092818560208601610d38565b61109b81610d62565b840191505092915050565b6110af81610cb9565b82525050565b6110be81610c18565b82525050565b6110cd81610c83565b82525050565b600060c08301600083015184820360008601526110f0828261106d565b9150506020830151848203602086015261110a828261106d565b91505060408301518482036040860152611124828261106d565b915050606083015161113960608601826110a6565b50608083015161114c60808601826110b5565b5060a083015161115f60a08601826110c4565b508091505092915050565b6000602082019050818103600083015261118481846110d3565b905092915050565b60006020820190506111a16000830184610dbb565b92915050565b60006020820190506111bc6000830184610dac565b92915050565b7f4e487b7100000000000000000000000000000000000000000000000000000000600052602260045260246000fd5b6000600282049050600182168061120957607f821691505b60208210810361121c5761121b6111c2565b5b50919050565b7f4e6f7420612074727573746564207265706f7274657200000000000000000000600082015250565b6000611258601683610d27565b915061126382611222565b602082019050919050565b600060208201905081810360008301526112878161124b565b9050919050565b60008190508160005260206000209050919050565b60006020601f8301049050919050565b600082821b905092915050565b6000600883026112f07fffffffffffffffffffffffffffffffffffffffffffffffffffffffffffffffff826112b3565b6112fa86836112b3565b95508019841693508086168417925050509392505050565b6000819050919050565b600061133761133261132d84610cb9565b611312565b610cb9565b9050919050565b6000819050919050565b6113518361131c565b61136561135d8261133e565b8484546112c0565b825550505050565b600090565b61137a61136d565b611385818484611348565b505050565b5b818110156113a95761139e600082611372565b60018101905061138b565b5050565b601f8211156113ee576113bf8161128e565b6113c8846112a3565b810160208510156113d7578190505b6113eb6113e3856112a3565b83018261138a565b50505b505050565b600082821c905092915050565b6000611411600019846008026113f3565b1980831691505092915050565b600061142a8383611400565b9150826002028217905092915050565b61144382610d1c565b67ffffffffffffffff81111561145c5761145b610e4a565b5b61146682546111f1565b6114718282856113ad565b600060209050601f8311600181146114a45760008415611492578287015190505b61149c858261141e565b865550611504565b601f1984166114b28661128e565b60005b828110156114da578489015182556001820191506020850194506020810190506114b5565b868310156114f757848901516114f3601f891682611400565b8355505b6001600288020188555050505b505050505050565b600081905092915050565b600061152282610d1c565b61152c818561150c565b935061153c818560208601610d38565b80840191505092915050565b60006115548284611517565b915081905092915050565b7f496e646578206f7574206f6620626f756e647300000000000000000000000000600082015250565b6000611595601383610d27565b91506115a08261155f565b602082019050919050565b600060208201905081810360008301526115c481611588565b9050919050565b7f4e487b7100000000000000000000000000000000000000000000000000000000600052603260045260246000fd5b7f4f6e6c7920746865206f776e65722063616e20706572666f726d20746869732060008201527f616374696f6e0000000000000000000000000000000000000000000000000000602082015250565b6000611656602683610d27565b9150611661826115fa565b604082019050919050565b6000602082019050818103600083015261168581611649565b9050919050565b7f496e76616c696420616464726573730000000000000000000000000000000000600082015250565b60006116c2600f83610d27565b91506116cd8261168c565b602082019050919050565b600060208201905081810360008301526116f1816116b5565b905091905056fea2646970667358221220e81b12bcaa85be4d6d5fde4a615dd7614d818aa3fb46498d5855e20b4cc100cc64736f6c63430008130033",
  "immutableReferences": {},
  "source": "// SPDX-License-Identifier: MIT\r\npragma solidity ^0.8.19;\r\n\r\n/**\r\n * @title IDSLogs\r\n * @dev A smart contract to store and manage immutable security logs on the Ethereum blockchain.\r\n * This prevents attackers from tampering with forensic evidence.\r\n */\r\ncontract IDSLogs {\r\n    // A struct to represent a single security alert entry.\r\n    // Structs are custom data types that group multiple variables.\r\n    struct Alert {\r\n        // A unique identifier for the alert.\r\n        string alertId;\r\n        // The type of the source that generated the alert (e.g., \"Firewall\", \"Web Server\", \"IDS\").\r\n        string sourceType;\r\n        // The raw log data or a summary of the event.\r\n        string logData;\r\n        // The Unix timestamp when the alert was logged on the blockchain.\r\n        uint256 timestamp;\r\n        // The Ethereum address of the entity that reported the alert.\r\n        address reporter;\r\n        // suspecious check of the alert\r\n        bool isSuspecious;\r\n    }\r\n\r\n    // A dynamic array to store all the security alerts.\r\n    // The `public` visibility automatically creates a getter function to read the array.\r\n    Alert[] public alerts;\r\n\r\n    // An event to signal that a new alert has been successfully added to the blockchain.\r\n    // Events are useful for off-chain applications (like your backend and frontend)\r\n    // to efficiently listen for new data without constantly polling.\r\n    event AlertAdded(\r\n        string indexed alertId,\r\n        address indexed reporter,\r\n        uint256 timestamp\r\n    );\r\n\r\n    // A mapping to keep track of trusted entities (e.g., specific IDS instances or server agents)\r\n    // that are allowed to report alerts.\r\n    // The key is an address, and the value is a boolean indicating if it's trusted.\r\n    mapping(address => bool) public isTrustedReporter;\r\n\r\n    // The address of the contract's owner. This is typically the address that deployed the contract.\r\n    address public owner;\r\n\r\n    // A modifier is a piece of code that can be used to change the behavior of functions.\r\n    // This one ensures a function can only be called by the contract owner.\r\n    modifier onlyOwner() {\r\n        require(msg.sender == owner, \"Only the owner can perform this action\");\r\n        _; // The `_` tells the compiler to run the rest of the function's code.\r\n    }\r\n\r\n    // The constructor is a special function that runs only once when the contract is deployed.\r\n    // It sets the `owner` to the address that deployed it.\r\n    constructor() {\r\n        owner = msg.sender;\r\n        isTrustedReporter[msg.sender] = true;\r\n    }\r\n\r\n    /**\r\n     * @dev Function to add a new trusted reporter.\r\n     * Only the contract owner can call this function.\r\n     * @param _reporter The Ethereum address to be granted trusted reporter status.\r\n     */\r\n    function addTrustedReporter(address _reporter) public onlyOwner {\r\n        require(_reporter != address(0), \"Invalid address\");\r\n        isTrustedReporter[_reporter] = true;\r\n    }\r\n\r\n    /**\r\n     * @dev Function to revoke the trusted status of a reporter.\r\n     * Only the contract owner can call this function.\r\n     * @param _reporter The Ethereum address whose trusted status should be removed.\r\n     */\r\n    function removeTrustedReporter(address _reporter) public onlyOwner {\r\n        require(_reporter != address(0), \"Invalid address\");\r\n        isTrustedReporter[_reporter] = false;\r\n    }\r\n\r\n    /**\r\n     * @dev The main function to log a new security alert on the blockchain.\r\n     * This function can only be called by a trusted reporter.\r\n     * @param _alertId The unique ID for the alert.\r\n     * @param _sourceType The type of the alert source.\r\n     * @param _logData The raw log data.\r\n     */\r\n    function addAlert(\r\n        string memory _alertId,\r\n        string memory _sourceType,\r\n        string memory _logData,\r\n        bool _isSuspecious\r\n    ) public {\r\n        // A require statement checks for a condition and reverts the transaction if it's false.\r\n        // This ensures only trusted reporters can add alerts.\r\n        require(isTrustedReporter[msg.sender], \"Not a trusted reporter\");\r\n        \r\n        // Push the new alert to the `alerts` array.\r\n        alerts.push(\r\n            Alert({\r\n                alertId: _alertId,\r\n                sourceType: _sourceType,\r\n                logData: _logData,\r\n                timestamp: block.timestamp,\r\n                reporter: msg.sender,\r\n                isSuspecious: _isSuspecious\r\n            })\r\n        );\r\n        \r\n        // Emit the `AlertAdded` event to make the new entry easily discoverable.\r\n        emit AlertAdded(_alertId, msg.sender, block.timestamp);\r\n    }\r\n\r\n    /**\r\n     * @dev A view function to get a specific alert by its index.\r\n     * 'view' functions don't modify the state and are free to call.\r\n     * @param _index The index of the alert in the `alerts` array.\r\n     * @return The Alert struct at the given index.\r\n     */\r\n    function getAlert(uint256 _index) public view returns (Alert memory) {\r\n        require(_index < alerts.length, \"Index out of bounds\");\r\n        return alerts[_index];\r\n    }\r\n\r\n    function getAlertsCount() public view returns (uint256){\r\n        return alerts.length;\r\n    }\r\n}",
  "sourcePath": "E:\\Major-Project\\contracts\\IDSLogs.sol",
  "compiler": {
    "name": "solc",
    "version": "0.8.19+commit.7dd6d404.Emscripten.clang"
  },
  "schemaVersion": "3.4.16",
  "updatedAt": "2025-10-08T09:37:24.825Z",
  "networkType": "ethereum",
  "devdoc": {
    "details": "A smart contract to store and manage immutable security logs on the Ethereum blockchain. This prevents attackers from tampering with forensic evidence.",
    "kind": "dev",
    "methods": {
      "addAlert(string,string,string,bool)": {
        "details": "The main function to log a new security alert on the blockchain. This function can only be called by a trusted reporter.",
        "params": {
          "_alertId": "The unique ID for the alert.",
          "_logData": "The raw log data.",
          "_sourceType": "The type of the alert source."
        }
      },
      "addTrustedReporter(address)": {
        "details": "Function to add a new trusted reporter. Only the contract owner can call this function.",
        "params": {
          "_reporter": "The Ethereum address to be granted trusted reporter status."
        }
      },
      "getAlert(uint256)": {
        "details": "A view function to get a specific alert by its index. 'view' functions don't modify the state and are free to call.",
        "params": {
          "_index": "The index of the alert in the `alerts` array."
        },
        "returns": {
          "_0": "The Alert struct at the given index."
        }
      },
      "removeTrustedReporter(address)": {
        "details": "Function to revoke the trusted status of a reporter. Only the contract owner can call this function.",
        "params": {
          "_reporter": "The Ethereum address whose trusted status should be removed."
        }
      }
    },
    "title": "IDSLogs",
    "version": 1
  },
  "userdoc": {
    "kind": "user",
    "methods": {},
    "version": 1
  }
}