{
  "contractName": "IDSLogs",
  "abi": [
    {
      "inputs": [],
      "stateMutability": "nonpayable",
      "type": "constructor"
    },
    {
      "anonymous": false,
      "inputs": [
        {
          "indexed": true,
          "internalType": "uint256",
          "name": "index",
          "type": "uint256"
        },
        {
          "indexed": false,
          "internalType": "string",
          "name": "alertId",
          "type": "string"
        },
        {
          "indexed": false,
          "internalType": "bool",
          "name": "isSuspicious",
          "type": "bool"
        },
        {
          "indexed": false,
          "internalType": "uint16",
          "name": "confidencePct",
          "type": "uint16"
        },
        {
          "indexed": false,
          "internalType": "string",
          "name": "modelVersion",
          "type": "string"
        },
        {
          "indexed": false,
          "internalType": "uint256",
          "name": "timestamp",
          "type": "uint256"
        }
      ],
      "name": "AlertAdded",
      "type": "event"
    },
    {
      "inputs": [
        {
          "internalType": "uint256",
          "name": "",
          "type": "uint256"
        }
      ],
      "name": "alerts",
      "outputs": [
        {
          "internalType": "string",
          "name": "alertId",
          "type": "string"
        },
        {
          "internalType": "string",
          "name": "sourceType",
          "type": "string"
        },
        {
          "internalType": "string",
          "name": "logData",
          "type": "string"
        },
        {
          "internalType": "uint256",
          "name": "timestamp",
          "type": "uint256"
        },
        {
          "internalType": "address",
          "name": "reporter",
          "type": "address"
        },
        {
          "internalType": "bool",
          "name": "isSuspicious",
          "type": "bool"
        },
        {
          "internalType": "uint16",
          "name": "confidencePct",
          "type": "uint16"
        },
        {
          "internalType": "string",
          "name": "modelVersion",
          "type": "string"
        }
      ],
      "stateMutability": "view",
      "type": "function",
      "constant": true
    },
    {
      "inputs": [],
      "name": "owner",
      "outputs": [
        {
          "internalType": "address",
          "name": "",
          "type": "address"
        }
      ],
      "stateMutability": "view",
      "type": "function",
      "constant": true
    },
    {
      "inputs": [
        {
          "internalType": "address",
          "name": "",
          "type": "address"
        }
      ],
      "name": "trustedReporters",
      "outputs": [
        {
          "internalType": "bool",
          "name": "",
          "type": "bool"
        }
      ],
      "stateMutability": "view",
      "type": "function",
      "constant": true
    },
    {
      "inputs": [
        {
          "internalType": "address",
          "name": "_reporter",
          "type": "address"
        }
      ],
      "name": "addTrustedReporter",
      "outputs": [],
      "stateMutability": "nonpayable",
      "type": "function"
    },
    {
      "inputs": [
        {
          "internalType": "address",
          "name": "_reporter",
          "type": "address"
        }
      ],
      "name": "removeTrustedReporter",
      "outputs": [],
      "stateMutability": "nonpayable",
      "type": "function"
    },
    {
      "inputs": [
        {
          "internalType": "string",
          "name": "_alertId",
          "type": "string"
        },
        {
          "internalType": "string",
          "name": "_sourceType",
          "type": "string"
        },
        {
          "internalType": "string",
          "name": "_logData",
          "type": "string"
        },
        {
          "internalType": "bool",
          "name": "_isSuspicious",
          "type": "bool"
        },
        {
          "internalType": "uint16",
          "name": "_confidencePct",
          "type": "uint16"
        },
        {
          "internalType": "string",
          "name": "_modelVersion",
          "type": "string"
        }
      ],
      "name": "addAlert",
      "outputs": [],
      "stateMutability": "nonpayable",
      "type": "function"
    },
    {
      "inputs": [
        {
          "internalType": "uint256",
          "name": "_index",
          "type": "uint256"
        }
      ],
      "name": "getAlert",
      "outputs": [
        {
          "components": [
            {
              "internalType": "string",
              "name": "alertId",
              "type": "string"
            },
            {
              "internalType": "string",
              "name": "sourceType",
              "type": "string"
            },
            {
              "internalType": "string",
              "name": "logData",
              "type": "string"
            },
            {
              "internalType": "uint256",
              "name": "timestamp",
              "type": "uint256"
            },
            {
              "internalType": "address",
              "name": "reporter",
              "type": "address"
            },
            {
              "internalType": "bool",
              "name": "isSuspicious",
              "type": "bool"
            },
            {
              "internalType": "uint16",
              "name": "confidencePct",
              "type": "uint16"
            },
            {
              "internalType": "string",
              "name": "modelVersion",
              "type": "string"
            }
          ],
          "internalType": "struct IDSLogs.Alert",
          "name": "",
          "type": "tuple"
        }
      ],
      "stateMutability": "view",
      "type": "function",
      "constant": true
    },
    {
      "inputs": [],
      "name": "getAlertsCount",
      "outputs": [
        {
          "internalType": "uint256",
          "name": "",
          "type": "uint256"
        }
      ],
      "stateMutability": "view",
      "type": "function",
      "constant": true
    }
  ],
  "bytecode": "0x608060405234801561001057600080fd5b50336000806101000a81548173ffffffffffffffffffffffffffffffffffffffff021916908373ffffffffffffffffffffffffffffffffffffffff1602179055506001600260003373ffffffffffffffffffffffffffffffffffffffff1673ffffffffffffffffffffffffffffffffffffffff16815260200190815260200160002060006101000a81548160ff021916908315150217905550611916806100b86000396000f3fe608060405234801561001057600080fd5b50600436106100885760003560e01c8063901136751161005b578063901136751461012e578063a1fcc73f1461015e578063b16925ae1461017a578063c7701efc1461019657610088565b8063141d55e01461008d578063171d073a146100a957806385081886146100e05780638da5cb5b14610110575b600080fd5b6100a760048036038101906100a29190610ecd565b6101b4565b005b6100c360048036038101906100be9190611000565b610463565b6040516100d798979695949392919061111a565b60405180910390f35b6100fa60048036038101906100f59190611000565b610716565b60405161010791906112ff565b60405180910390f35b610118610a7d565b6040516101259190611321565b60405180910390f35b61014860048036038101906101439190611368565b610aa1565b6040516101559190611395565b60405180910390f35b61017860048036038101906101739190611368565b610ac1565b005b610194600480360381019061018f9190611368565b610baa565b005b61019e610c93565b6040516101ab91906113b0565b60405180910390f35b600260003373ffffffffffffffffffffffffffffffffffffffff1673ffffffffffffffffffffffffffffffffffffffff16815260200190815260200160002060009054906101000a900460ff1680610257575060008054906101000a900473ffffffffffffffffffffffffffffffffffffffff1673ffffffffffffffffffffffffffffffffffffffff163373ffffffffffffffffffffffffffffffffffffffff16145b610296576040517f08c379a000000000000000000000000000000000000000000000000000000000815260040161028d90611417565b60405180910390fd5b600042905060016040518061010001604052808981526020018881526020018781526020018381526020013373ffffffffffffffffffffffffffffffffffffffff16815260200186151581526020018561ffff16815260200184815250908060018154018082558091505060019003906000526020600020906006020160009091909190915060008201518160000190816103319190611643565b5060208201518160010190816103479190611643565b50604082015181600201908161035d9190611643565b506060820151816003015560808201518160040160006101000a81548173ffffffffffffffffffffffffffffffffffffffff021916908373ffffffffffffffffffffffffffffffffffffffff16021790555060a08201518160040160146101000a81548160ff02191690831515021790555060c08201518160040160156101000a81548161ffff021916908361ffff16021790555060e08201518160050190816104079190611643565b5050506001808054905061041b9190611744565b7fb79a14fe2ee28f2f44c268637428566f050a6985f80507a84af30fae9ad7d6348886868686604051610452959493929190611778565b60405180910390a250505050505050565b6001818154811061047357600080fd5b906000526020600020906006020160009150905080600001805461049690611466565b80601f01602080910402602001604051908101604052809291908181526020018280546104c290611466565b801561050f5780601f106104e45761010080835404028352916020019161050f565b820191906000526020600020905b8154815290600101906020018083116104f257829003601f168201915b50505050509080600101805461052490611466565b80601f016020809104026020016040519081016040528092919081815260200182805461055090611466565b801561059d5780601f106105725761010080835404028352916020019161059d565b820191906000526020600020905b81548152906001019060200180831161058057829003601f168201915b5050505050908060020180546105b290611466565b80601f01602080910402602001604051908101604052809291908181526020018280546105de90611466565b801561062b5780601f106106005761010080835404028352916020019161062b565b820191906000526020600020905b81548152906001019060200180831161060e57829003601f168201915b5050505050908060030154908060040160009054906101000a900473ffffffffffffffffffffffffffffffffffffffff16908060040160149054906101000a900460ff16908060040160159054906101000a900461ffff169080600501805461069390611466565b80601f01602080910402602001604051908101604052809291908181526020018280546106bf90611466565b801561070c5780601f106106e15761010080835404028352916020019161070c565b820191906000526020600020905b8154815290600101906020018083116106ef57829003601f168201915b5050505050905088565b61071e610ca0565b6001805490508210610765576040517f08c379a000000000000000000000000000000000000000000000000000000000815260040161075c90611825565b60405180910390fd5b6001828154811061077957610778611845565b5b9060005260206000209060060201604051806101000160405290816000820180546107a390611466565b80601f01602080910402602001604051908101604052809291908181526020018280546107cf90611466565b801561081c5780601f106107f15761010080835404028352916020019161081c565b820191906000526020600020905b8154815290600101906020018083116107ff57829003601f168201915b5050505050815260200160018201805461083590611466565b80601f016020809104026020016040519081016040528092919081815260200182805461086190611466565b80156108ae5780601f10610883576101008083540402835291602001916108ae565b820191906000526020600020905b81548152906001019060200180831161089157829003601f168201915b505050505081526020016002820180546108c790611466565b80601f01602080910402602001604051908101604052809291908181526020018280546108f390611466565b80156109405780601f1061091557610100808354040283529160200191610940565b820191906000526020600020905b81548152906001019060200180831161092357829003601f168201915b50505050508152602001600382015481526020016004820160009054906101000a900473ffffffffffffffffffffffffffffffffffffffff1673ffffffffffffffffffffffffffffffffffffffff1673ffffffffffffffffffffffffffffffffffffffff1681526020016004820160149054906101000a900460ff161515151581526020016004820160159054906101000a900461ffff1661ffff1661ffff1681526020016005820180546109f490611466565b80601f0160208091040260200160405190810160405280929190818152602001828054610a2090611466565b8015610a6d5780601f10610a4257610100808354040283529160200191610a6d565b820191906000526020600020905b815481529060010190602001808311610a5057829003601f168201915b5050505050815250509050919050565b60008054906101000a900473ffffffffffffffffffffffffffffffffffffffff1681565b60026020528060005260406000206000915054906101000a900460ff1681565b60008054906101000a900473ffffffffffffffffffffffffffffffffffffffff1673ffffffffffffffffffffffffffffffffffffffff163373ffffffffffffffffffffffffffffffffffffffff1614610b4f576040517f08c379a0000000000000000000000000000000000000000000000000000000008152600401610b46906118c0565b60405180910390fd5b6001600260008373ffffffffffffffffffffffffffffffffffffffff1673ffffffffffffffffffffffffffffffffffffffff16815260200190815260200160002060006101000a81548160ff02191690831515021790555050565b60008054906101000a900473ffffffffffffffffffffffffffffffffffffffff1673ffffffffffffffffffffffffffffffffffffffff163373ffffffffffffffffffffffffffffffffffffffff1614610c38576040517f08c379a0000000000000000000000000000000000000000000000000000000008152600401610c2f906118c0565b60405180910390fd5b6000600260008373ffffffffffffffffffffffffffffffffffffffff1673ffffffffffffffffffffffffffffffffffffffff16815260200190815260200160002060006101000a81548160ff02191690831515021790555050565b6000600180549050905090565b60405180610100016040528060608152602001606081526020016060815260200160008152602001600073ffffffffffffffffffffffffffffffffffffffff168152602001600015158152602001600061ffff168152602001606081525090565b6000604051905090565b600080fd5b600080fd5b600080fd5b600080fd5b6000601f19601f8301169050919050565b7f4e487b7100000000000000000000000000000000000000000000000000000000600052604160045260246000fd5b610d6882610d1f565b810181811067ffffffffffffffff82111715610d8757610d86610d30565b5b80604052505050565b6000610d9a610d01565b9050610da68282610d5f565b919050565b600067ffffffffffffffff821115610dc657610dc5610d30565b5b610dcf82610d1f565b9050602081019050919050565b82818337600083830152505050565b6000610dfe610df984610dab565b610d90565b905082815260208101848484011115610e1a57610e19610d1a565b5b610e25848285610ddc565b509392505050565b600082601f830112610e4257610e41610d15565b5b8135610e52848260208601610deb565b91505092915050565b60008115159050919050565b610e7081610e5b565b8114610e7b57600080fd5b50565b600081359050610e8d81610e67565b92915050565b600061ffff82169050919050565b610eaa81610e93565b8114610eb557600080fd5b50565b600081359050610ec781610ea1565b92915050565b60008060008060008060c08789031215610eea57610ee9610d0b565b5b600087013567ffffffffffffffff811115610f0857610f07610d10565b5b610f1489828a01610e2d565b965050602087013567ffffffffffffffff811115610f3557610f34610d10565b5b610f4189828a01610e2d565b955050604087013567ffffffffffffffff811115610f6257610f61610d10565b5b610f6e89828a01610e2d565b9450506060610f7f89828a01610e7e565b9350506080610f9089828a01610eb8565b92505060a087013567ffffffffffffffff811115610fb157610fb0610d10565b5b610fbd89828a01610e2d565b9150509295509295509295565b6000819050919050565b610fdd81610fca565b8114610fe857600080fd5b50565b600081359050610ffa81610fd4565b92915050565b60006020828403121561101657611015610d0b565b5b600061102484828501610feb565b91505092915050565b600081519050919050565b600082825260208201905092915050565b60005b8381101561106757808201518184015260208101905061104c565b60008484015250505050565b600061107e8261102d565b6110888185611038565b9350611098818560208601611049565b6110a181610d1f565b840191505092915050565b6110b581610fca565b82525050565b600073ffffffffffffffffffffffffffffffffffffffff82169050919050565b60006110e6826110bb565b9050919050565b6110f6816110db565b82525050565b61110581610e5b565b82525050565b61111481610e93565b82525050565b6000610100820190508181036000830152611135818b611073565b90508181036020830152611149818a611073565b9050818103604083015261115d8189611073565b905061116c60608301886110ac565b61117960808301876110ed565b61118660a08301866110fc565b61119360c083018561110b565b81810360e08301526111a58184611073565b90509998505050505050505050565b600082825260208201905092915050565b60006111d08261102d565b6111da81856111b4565b93506111ea818560208601611049565b6111f381610d1f565b840191505092915050565b61120781610fca565b82525050565b611216816110db565b82525050565b61122581610e5b565b82525050565b61123481610e93565b82525050565b600061010083016000830151848203600086015261125882826111c5565b9150506020830151848203602086015261127282826111c5565b9150506040830151848203604086015261128c82826111c5565b91505060608301516112a160608601826111fe565b5060808301516112b4608086018261120d565b5060a08301516112c760a086018261121c565b5060c08301516112da60c086018261122b565b5060e083015184820360e08601526112f282826111c5565b9150508091505092915050565b60006020820190508181036000830152611319818461123a565b905092915050565b600060208201905061133660008301846110ed565b92915050565b611345816110db565b811461135057600080fd5b50565b6000813590506113628161133c565b92915050565b60006020828403121561137e5761137d610d0b565b5b600061138c84828501611353565b91505092915050565b60006020820190506113aa60008301846110fc565b92915050565b60006020820190506113c560008301846110ac565b92915050565b7f4e6f7420617574686f72697a6564207265706f72746572000000000000000000600082015250565b6000611401601783611038565b915061140c826113cb565b602082019050919050565b60006020820190508181036000830152611430816113f4565b9050919050565b7f4e487b7100000000000000000000000000000000000000000000000000000000600052602260045260246000fd5b6000600282049050600182168061147e57607f821691505b60208210810361149157611490611437565b5b50919050565b60008190508160005260206000209050919050565b60006020601f8301049050919050565b600082821b905092915050565b6000600883026114f97fffffffffffffffffffffffffffffffffffffffffffffffffffffffffffffffff826114bc565b61150386836114bc565b95508019841693508086168417925050509392505050565b6000819050919050565b600061154061153b61153684610fca565b61151b565b610fca565b9050919050565b6000819050919050565b61155a83611525565b61156e61156682611547565b8484546114c9565b825550505050565b600090565b611583611576565b61158e818484611551565b505050565b5b818110156115b2576115a760008261157b565b600181019050611594565b5050565b601f8211156115f7576115c881611497565b6115d1846114ac565b810160208510156115e0578190505b6115f46115ec856114ac565b830182611593565b50505b505050565b600082821c905092915050565b600061161a600019846008026115fc565b1980831691505092915050565b60006116338383611609565b9150826002028217905092915050565b61164c8261102d565b67ffffffffffffffff81111561166557611664610d30565b5b61166f8254611466565b61167a8282856115b6565b600060209050601f8311600181146116ad576000841561169b578287015190505b6116a58582611627565b86555061170d565b601f1984166116bb86611497565b60005b828110156116e3578489015182556001820191506020850194506020810190506116be565b8683101561170057848901516116fc601f891682611609565b8355505b6001600288020188555050505b505050505050565b7f4e487b7100000000000000000000000000000000000000000000000000000000600052601160045260246000fd5b600061174f82610fca565b915061175a83610fca565b925082820390508181111561177257611771611715565b5b92915050565b600060a08201905081810360008301526117928188611073565b90506117a160208301876110fc565b6117ae604083018661110b565b81810360608301526117c08185611073565b90506117cf60808301846110ac565b9695505050505050565b7f496e646578206f7574206f6620626f756e647300000000000000000000000000600082015250565b600061180f601383611038565b915061181a826117d9565b602082019050919050565b6000602082019050818103600083015261183e81611802565b9050919050565b7f4e487b7100000000000000000000000000000000000000000000000000000000600052603260045260246000fd5b7f4f6e6c79206f776e657200000000000000000000000000000000000000000000600082015250565b60006118aa600a83611038565b91506118b582611874565b602082019050919050565b600060208201905081810360008301526118d98161189d565b905091905056fea26469706673582212206a574b93c629e091cadfa53a6790d6a96ab5ad2bae8b02ab7e7bbb616f22234164736f6c63430008130033",
  "immutableReferences": {},
  "source": "// SPDX-License-Identifier: MIT\r\npragma solidity ^0.8.19;\r\n\r\ncontract IDSLogs {\r\n    struct Alert {\r\n        string alertId;\r\n        string sourceType;\r\n        string logData;\r\n        uint256 timestamp;\r\n        address reporter;\r\n        bool isSuspicious;        // ML-detected flag\r\n        uint16 confidencePct;     // ML model confidence (0100)\r\n        string modelVersion;      // Version identifier of model\r\n    }\r\n\r\n    address public owner;\r\n    Alert[] public alerts;\r\n    mapping(address => bool) public trustedReporters;\r\n\r\n    event AlertAdded(\r\n        uint256 indexed index,\r\n        string alertId,\r\n        bool isSuspicious,\r\n        uint16 confidencePct,\r\n        string modelVersion,\r\n        uint256 timestamp\r\n    );\r\n\r\n    modifier onlyOwner() {\r\n        require(msg.sender == owner, \"Only owner\");\r\n        _;\r\n    }\r\n\r\n    modifier onlyTrustedReporter() {\r\n        require(trustedReporters[msg.sender] || msg.sender == owner, \"Not authorized reporter\");\r\n        _;\r\n    }\r\n\r\n    constructor() {\r\n        owner = msg.sender;\r\n        trustedReporters[msg.sender] = true;\r\n    }\r\n\r\n    function addTrustedReporter(address _reporter) public onlyOwner {\r\n        trustedReporters[_reporter] = true;\r\n    }\r\n\r\n    function removeTrustedReporter(address _reporter) public onlyOwner {\r\n        trustedReporters[_reporter] = false;\r\n    }\r\n\r\n    function addAlert(\r\n        string memory _alertId,\r\n        string memory _sourceType,\r\n        string memory _logData,\r\n        bool _isSuspicious,\r\n        uint16 _confidencePct,\r\n        string memory _modelVersion\r\n    ) public onlyTrustedReporter {\r\n        uint256 ts = block.timestamp;\r\n        alerts.push(Alert({\r\n            alertId: _alertId,\r\n            sourceType: _sourceType,\r\n            logData: _logData,\r\n            timestamp: ts,\r\n            reporter: msg.sender,\r\n            isSuspicious: _isSuspicious,\r\n            confidencePct: _confidencePct,\r\n            modelVersion: _modelVersion\r\n        }));\r\n        emit AlertAdded(alerts.length - 1, _alertId, _isSuspicious, _confidencePct, _modelVersion, ts);\r\n    }\r\n\r\n    function getAlert(uint256 _index) public view returns (Alert memory) {\r\n        require(_index < alerts.length, \"Index out of bounds\");\r\n        return alerts[_index];\r\n    }\r\n\r\n    function getAlertsCount() public view returns (uint256){\r\n        return alerts.length;\r\n    }\r\n}\r\n",
  "sourcePath": "E:\\Major-Project\\contracts\\IDSLogs.sol",
  "compiler": {
    "name": "solc",
    "version": "0.8.19+commit.7dd6d404.Emscripten.clang"
  },
  "schemaVersion": "3.4.16",
  "updatedAt": "2025-10-26T04:48:39.483Z",
  "networkType": "ethereum",
  "devdoc": {
    "kind": "dev",
    "methods": {},
    "version": 1
  },
  "userdoc": {
    "kind": "user",
    "methods": {},
    "version": 1
  }
}