{
  "contractName": "IDSLogs",
  "abi": [
    {
      "inputs": [],
      "stateMutability": "nonpayable",
      "type": "constructor"
    },
    {
      "anonymous": false,
      "inputs": [
        {
          "indexed": true,
          "internalType": "uint256",
          "name": "index",
          "type": "uint256"
        },
        {
          "indexed": false,
          "internalType": "string",
          "name": "alertId",
          "type": "string"
        },
        {
          "indexed": false,
          "internalType": "bool",
          "name": "isSuspicious",
          "type": "bool"
        },
        {
          "indexed": false,
          "internalType": "uint16",
          "name": "confidencePct",
          "type": "uint16"
        },
        {
          "indexed": false,
          "internalType": "string",
          "name": "modelVersion",
          "type": "string"
        },
        {
          "indexed": false,
          "internalType": "uint256",
          "name": "timestamp",
          "type": "uint256"
        }
      ],
      "name": "AlertAdded",
      "type": "event"
    },
    {
      "inputs": [
        {
          "internalType": "uint256",
          "name": "",
          "type": "uint256"
        }
      ],
      "name": "alerts",
      "outputs": [
        {
          "internalType": "string",
          "name": "alertId",
          "type": "string"
        },
        {
          "internalType": "string",
          "name": "sourceType",
          "type": "string"
        },
        {
          "internalType": "bytes32",
          "name": "logHash",
          "type": "bytes32"
        },
        {
          "internalType": "uint256",
          "name": "timestamp",
          "type": "uint256"
        },
        {
          "internalType": "address",
          "name": "reporter",
          "type": "address"
        },
        {
          "internalType": "bool",
          "name": "isSuspicious",
          "type": "bool"
        },
        {
          "internalType": "uint16",
          "name": "confidencePct",
          "type": "uint16"
        },
        {
          "internalType": "string",
          "name": "modelVersion",
          "type": "string"
        }
      ],
      "stateMutability": "view",
      "type": "function",
      "constant": true
    },
    {
      "inputs": [],
      "name": "owner",
      "outputs": [
        {
          "internalType": "address",
          "name": "",
          "type": "address"
        }
      ],
      "stateMutability": "view",
      "type": "function",
      "constant": true
    },
    {
      "inputs": [
        {
          "internalType": "address",
          "name": "",
          "type": "address"
        }
      ],
      "name": "trustedReporters",
      "outputs": [
        {
          "internalType": "bool",
          "name": "",
          "type": "bool"
        }
      ],
      "stateMutability": "view",
      "type": "function",
      "constant": true
    },
    {
      "inputs": [
        {
          "internalType": "address",
          "name": "_reporter",
          "type": "address"
        }
      ],
      "name": "addTrustedReporter",
      "outputs": [],
      "stateMutability": "nonpayable",
      "type": "function"
    },
    {
      "inputs": [
        {
          "internalType": "address",
          "name": "_reporter",
          "type": "address"
        }
      ],
      "name": "removeTrustedReporter",
      "outputs": [],
      "stateMutability": "nonpayable",
      "type": "function"
    },
    {
      "inputs": [
        {
          "internalType": "string",
          "name": "_alertId",
          "type": "string"
        },
        {
          "internalType": "string",
          "name": "_sourceType",
          "type": "string"
        },
        {
          "internalType": "bytes32",
          "name": "_logHash",
          "type": "bytes32"
        },
        {
          "internalType": "bool",
          "name": "_isSuspicious",
          "type": "bool"
        },
        {
          "internalType": "uint16",
          "name": "_confidencePct",
          "type": "uint16"
        },
        {
          "internalType": "string",
          "name": "_modelVersion",
          "type": "string"
        }
      ],
      "name": "addAlert",
      "outputs": [],
      "stateMutability": "nonpayable",
      "type": "function"
    },
    {
      "inputs": [
        {
          "internalType": "uint256",
          "name": "_index",
          "type": "uint256"
        }
      ],
      "name": "getAlert",
      "outputs": [
        {
          "internalType": "string",
          "name": "alertId",
          "type": "string"
        },
        {
          "internalType": "string",
          "name": "sourceType",
          "type": "string"
        },
        {
          "internalType": "bytes32",
          "name": "logHash",
          "type": "bytes32"
        },
        {
          "internalType": "uint256",
          "name": "timestamp",
          "type": "uint256"
        },
        {
          "internalType": "address",
          "name": "reporter",
          "type": "address"
        },
        {
          "internalType": "bool",
          "name": "isSuspicious",
          "type": "bool"
        },
        {
          "internalType": "uint16",
          "name": "confidencePct",
          "type": "uint16"
        },
        {
          "internalType": "string",
          "name": "modelVersion",
          "type": "string"
        }
      ],
      "stateMutability": "view",
      "type": "function",
      "constant": true
    },
    {
      "inputs": [],
      "name": "getAlertsCount",
      "outputs": [
        {
          "internalType": "uint256",
          "name": "",
          "type": "uint256"
        }
      ],
      "stateMutability": "view",
      "type": "function",
      "constant": true
    }
  ],
  "bytecode": "0x608060405234801561001057600080fd5b50336000806101000a81548173ffffffffffffffffffffffffffffffffffffffff021916908373ffffffffffffffffffffffffffffffffffffffff1602179055506001600260003373ffffffffffffffffffffffffffffffffffffffff1673ffffffffffffffffffffffffffffffffffffffff16815260200190815260200160002060006101000a81548160ff02191690831515021790555061169b806100b86000396000f3fe608060405234801561001057600080fd5b50600436106100885760003560e01c8063901136751161005b5780639011367514610135578063a1fcc73f14610165578063b16925ae14610181578063c7701efc1461019d57610088565b8063171d073a1461008d578063484a5b6f146100c457806385081886146100e05780638da5cb5b14610117575b600080fd5b6100a760048036038101906100a29190610c1b565b6101bb565b6040516100bb989796959493929190610d79565b60405180910390f35b6100de60048036038101906100d99190610fc5565b6103e6565b005b6100fa60048036038101906100f59190610c1b565b610689565b60405161010e989796959493929190610d79565b60405180910390f35b61011f6109ae565b60405161012c91906110a6565b60405180910390f35b61014f600480360381019061014a91906110ed565b6109d2565b60405161015c919061111a565b60405180910390f35b61017f600480360381019061017a91906110ed565b6109f2565b005b61019b600480360381019061019691906110ed565b610adb565b005b6101a5610bc4565b6040516101b29190611135565b60405180910390f35b600181815481106101cb57600080fd5b90600052602060002090600602016000915090508060000180546101ee9061117f565b80601f016020809104026020016040519081016040528092919081815260200182805461021a9061117f565b80156102675780601f1061023c57610100808354040283529160200191610267565b820191906000526020600020905b81548152906001019060200180831161024a57829003601f168201915b50505050509080600101805461027c9061117f565b80601f01602080910402602001604051908101604052809291908181526020018280546102a89061117f565b80156102f55780601f106102ca576101008083540402835291602001916102f5565b820191906000526020600020905b8154815290600101906020018083116102d857829003601f168201915b5050505050908060020154908060030154908060040160009054906101000a900473ffffffffffffffffffffffffffffffffffffffff16908060040160149054906101000a900460ff16908060040160159054906101000a900461ffff16908060050180546103639061117f565b80601f016020809104026020016040519081016040528092919081815260200182805461038f9061117f565b80156103dc5780601f106103b1576101008083540402835291602001916103dc565b820191906000526020600020905b8154815290600101906020018083116103bf57829003601f168201915b5050505050905088565b600260003373ffffffffffffffffffffffffffffffffffffffff1673ffffffffffffffffffffffffffffffffffffffff16815260200190815260200160002060009054906101000a900460ff1680610489575060008054906101000a900473ffffffffffffffffffffffffffffffffffffffff1673ffffffffffffffffffffffffffffffffffffffff163373ffffffffffffffffffffffffffffffffffffffff16145b6104c8576040517f08c379a00000000000000000000000000000000000000000000000000000000081526004016104bf906111fc565b60405180910390fd5b600042905060016040518061010001604052808981526020018881526020018781526020018381526020013373ffffffffffffffffffffffffffffffffffffffff16815260200186151581526020018561ffff168152602001848152509080600181540180825580915050600190039060005260206000209060060201600090919091909150600082015181600001908161056391906113c8565b50602082015181600101908161057991906113c8565b50604082015181600201556060820151816003015560808201518160040160006101000a81548173ffffffffffffffffffffffffffffffffffffffff021916908373ffffffffffffffffffffffffffffffffffffffff16021790555060a08201518160040160146101000a81548160ff02191690831515021790555060c08201518160040160156101000a81548161ffff021916908361ffff16021790555060e082015181600501908161062d91906113c8565b5050506001808054905061064191906114c9565b7fb79a14fe2ee28f2f44c268637428566f050a6985f80507a84af30fae9ad7d63488868686866040516106789594939291906114fd565b60405180910390a250505050505050565b6060806000806000806000606060018054905089106106dd576040517f08c379a00000000000000000000000000000000000000000000000000000000081526004016106d4906115aa565b60405180910390fd5b600060018a815481106106f3576106f26115ca565b5b90600052602060002090600602016040518061010001604052908160008201805461071d9061117f565b80601f01602080910402602001604051908101604052809291908181526020018280546107499061117f565b80156107965780601f1061076b57610100808354040283529160200191610796565b820191906000526020600020905b81548152906001019060200180831161077957829003601f168201915b505050505081526020016001820180546107af9061117f565b80601f01602080910402602001604051908101604052809291908181526020018280546107db9061117f565b80156108285780601f106107fd57610100808354040283529160200191610828565b820191906000526020600020905b81548152906001019060200180831161080b57829003601f168201915b5050505050815260200160028201548152602001600382015481526020016004820160009054906101000a900473ffffffffffffffffffffffffffffffffffffffff1673ffffffffffffffffffffffffffffffffffffffff1673ffffffffffffffffffffffffffffffffffffffff1681526020016004820160149054906101000a900460ff161515151581526020016004820160159054906101000a900461ffff1661ffff1661ffff1681526020016005820180546108e69061117f565b80601f01602080910402602001604051908101604052809291908181526020018280546109129061117f565b801561095f5780601f106109345761010080835404028352916020019161095f565b820191906000526020600020905b81548152906001019060200180831161094257829003601f168201915b5050505050815250509050806000015181602001518260400151836060015184608001518560a001518660c001518760e001519850985098509850985098509850985050919395975091939597565b60008054906101000a900473ffffffffffffffffffffffffffffffffffffffff1681565b60026020528060005260406000206000915054906101000a900460ff1681565b60008054906101000a900473ffffffffffffffffffffffffffffffffffffffff1673ffffffffffffffffffffffffffffffffffffffff163373ffffffffffffffffffffffffffffffffffffffff1614610a80576040517f08c379a0000000000000000000000000000000000000000000000000000000008152600401610a7790611645565b60405180910390fd5b6001600260008373ffffffffffffffffffffffffffffffffffffffff1673ffffffffffffffffffffffffffffffffffffffff16815260200190815260200160002060006101000a81548160ff02191690831515021790555050565b60008054906101000a900473ffffffffffffffffffffffffffffffffffffffff1673ffffffffffffffffffffffffffffffffffffffff163373ffffffffffffffffffffffffffffffffffffffff1614610b69576040517f08c379a0000000000000000000000000000000000000000000000000000000008152600401610b6090611645565b60405180910390fd5b6000600260008373ffffffffffffffffffffffffffffffffffffffff1673ffffffffffffffffffffffffffffffffffffffff16815260200190815260200160002060006101000a81548160ff02191690831515021790555050565b6000600180549050905090565b6000604051905090565b600080fd5b600080fd5b6000819050919050565b610bf881610be5565b8114610c0357600080fd5b50565b600081359050610c1581610bef565b92915050565b600060208284031215610c3157610c30610bdb565b5b6000610c3f84828501610c06565b91505092915050565b600081519050919050565b600082825260208201905092915050565b60005b83811015610c82578082015181840152602081019050610c67565b60008484015250505050565b6000601f19601f8301169050919050565b6000610caa82610c48565b610cb48185610c53565b9350610cc4818560208601610c64565b610ccd81610c8e565b840191505092915050565b6000819050919050565b610ceb81610cd8565b82525050565b610cfa81610be5565b82525050565b600073ffffffffffffffffffffffffffffffffffffffff82169050919050565b6000610d2b82610d00565b9050919050565b610d3b81610d20565b82525050565b60008115159050919050565b610d5681610d41565b82525050565b600061ffff82169050919050565b610d7381610d5c565b82525050565b6000610100820190508181036000830152610d94818b610c9f565b90508181036020830152610da8818a610c9f565b9050610db76040830189610ce2565b610dc46060830188610cf1565b610dd16080830187610d32565b610dde60a0830186610d4d565b610deb60c0830185610d6a565b81810360e0830152610dfd8184610c9f565b90509998505050505050505050565b600080fd5b600080fd5b7f4e487b7100000000000000000000000000000000000000000000000000000000600052604160045260246000fd5b610e4e82610c8e565b810181811067ffffffffffffffff82111715610e6d57610e6c610e16565b5b80604052505050565b6000610e80610bd1565b9050610e8c8282610e45565b919050565b600067ffffffffffffffff821115610eac57610eab610e16565b5b610eb582610c8e565b9050602081019050919050565b82818337600083830152505050565b6000610ee4610edf84610e91565b610e76565b905082815260208101848484011115610f0057610eff610e11565b5b610f0b848285610ec2565b509392505050565b600082601f830112610f2857610f27610e0c565b5b8135610f38848260208601610ed1565b91505092915050565b610f4a81610cd8565b8114610f5557600080fd5b50565b600081359050610f6781610f41565b92915050565b610f7681610d41565b8114610f8157600080fd5b50565b600081359050610f9381610f6d565b92915050565b610fa281610d5c565b8114610fad57600080fd5b50565b600081359050610fbf81610f99565b92915050565b60008060008060008060c08789031215610fe257610fe1610bdb565b5b600087013567ffffffffffffffff81111561100057610fff610be0565b5b61100c89828a01610f13565b965050602087013567ffffffffffffffff81111561102d5761102c610be0565b5b61103989828a01610f13565b955050604061104a89828a01610f58565b945050606061105b89828a01610f84565b935050608061106c89828a01610fb0565b92505060a087013567ffffffffffffffff81111561108d5761108c610be0565b5b61109989828a01610f13565b9150509295509295509295565b60006020820190506110bb6000830184610d32565b92915050565b6110ca81610d20565b81146110d557600080fd5b50565b6000813590506110e7816110c1565b92915050565b60006020828403121561110357611102610bdb565b5b6000611111848285016110d8565b91505092915050565b600060208201905061112f6000830184610d4d565b92915050565b600060208201905061114a6000830184610cf1565b92915050565b7f4e487b7100000000000000000000000000000000000000000000000000000000600052602260045260246000fd5b6000600282049050600182168061119757607f821691505b6020821081036111aa576111a9611150565b5b50919050565b7f4e6f7420617574686f72697a6564207265706f72746572000000000000000000600082015250565b60006111e6601783610c53565b91506111f1826111b0565b602082019050919050565b60006020820190508181036000830152611215816111d9565b9050919050565b60008190508160005260206000209050919050565b60006020601f8301049050919050565b600082821b905092915050565b60006008830261127e7fffffffffffffffffffffffffffffffffffffffffffffffffffffffffffffffff82611241565b6112888683611241565b95508019841693508086168417925050509392505050565b6000819050919050565b60006112c56112c06112bb84610be5565b6112a0565b610be5565b9050919050565b6000819050919050565b6112df836112aa565b6112f36112eb826112cc565b84845461124e565b825550505050565b600090565b6113086112fb565b6113138184846112d6565b505050565b5b818110156113375761132c600082611300565b600181019050611319565b5050565b601f82111561137c5761134d8161121c565b61135684611231565b81016020851015611365578190505b61137961137185611231565b830182611318565b50505b505050565b600082821c905092915050565b600061139f60001984600802611381565b1980831691505092915050565b60006113b8838361138e565b9150826002028217905092915050565b6113d182610c48565b67ffffffffffffffff8111156113ea576113e9610e16565b5b6113f4825461117f565b6113ff82828561133b565b600060209050601f8311600181146114325760008415611420578287015190505b61142a85826113ac565b865550611492565b601f1984166114408661121c565b60005b8281101561146857848901518255600182019150602085019450602081019050611443565b868310156114855784890151611481601f89168261138e565b8355505b6001600288020188555050505b505050505050565b7f4e487b7100000000000000000000000000000000000000000000000000000000600052601160045260246000fd5b60006114d482610be5565b91506114df83610be5565b92508282039050818111156114f7576114f661149a565b5b92915050565b600060a08201905081810360008301526115178188610c9f565b90506115266020830187610d4d565b6115336040830186610d6a565b81810360608301526115458185610c9f565b90506115546080830184610cf1565b9695505050505050565b7f496e646578206f7574206f6620626f756e647300000000000000000000000000600082015250565b6000611594601383610c53565b915061159f8261155e565b602082019050919050565b600060208201905081810360008301526115c381611587565b9050919050565b7f4e487b7100000000000000000000000000000000000000000000000000000000600052603260045260246000fd5b7f4f6e6c79206f776e657200000000000000000000000000000000000000000000600082015250565b600061162f600a83610c53565b915061163a826115f9565b602082019050919050565b6000602082019050818103600083015261165e81611622565b905091905056fea26469706673582212207179efe7997e5be9f46632354beb411370f0d2431398b3a64592d0f23633d56064736f6c63430008130033",
  "immutableReferences": {},
  "source": "// SPDX-License-Identifier: MIT\r\npragma solidity ^0.8.19;\r\n\r\ncontract IDSLogs {\r\n    struct Alert {\r\n        string alertId;\r\n        string sourceType;\r\n        bytes32 logHash;\r\n        uint256 timestamp;\r\n        address reporter;\r\n        bool isSuspicious;        // ML-detected flag\r\n        uint16 confidencePct;     // ML model confidence (0100)\r\n        string modelVersion;      // Version identifier of model\r\n    }\r\n\r\n    address public owner;\r\n    Alert[] public alerts;\r\n    mapping(address => bool) public trustedReporters;\r\n\r\n    event AlertAdded(\r\n        uint256 indexed index,\r\n        string alertId,\r\n        bool isSuspicious,\r\n        uint16 confidencePct,\r\n        string modelVersion,\r\n        uint256 timestamp\r\n    );\r\n\r\n    modifier onlyOwner() {\r\n        require(msg.sender == owner, \"Only owner\");\r\n        _;\r\n    }\r\n\r\n    modifier onlyTrustedReporter() {\r\n        require(trustedReporters[msg.sender] || msg.sender == owner, \"Not authorized reporter\");\r\n        _;\r\n    }\r\n\r\n    constructor() {\r\n        owner = msg.sender;\r\n        trustedReporters[msg.sender] = true;\r\n    }\r\n\r\n    function addTrustedReporter(address _reporter) public onlyOwner {\r\n        trustedReporters[_reporter] = true;\r\n    }\r\n\r\n    function removeTrustedReporter(address _reporter) public onlyOwner {\r\n        trustedReporters[_reporter] = false;\r\n    }\r\n\r\n    function addAlert(\r\n        string memory _alertId,\r\n        string memory _sourceType,\r\n        bytes32 _logHash,\r\n        bool _isSuspicious,\r\n        uint16 _confidencePct,\r\n        string memory _modelVersion\r\n    ) public onlyTrustedReporter {\r\n        uint256 ts = block.timestamp;\r\n        alerts.push(Alert({\r\n            alertId: _alertId,\r\n            sourceType: _sourceType,\r\n            logHash: _logHash,\r\n            timestamp: ts,\r\n            reporter: msg.sender,\r\n            isSuspicious: _isSuspicious,\r\n            confidencePct: _confidencePct,\r\n            modelVersion: _modelVersion\r\n        }));\r\n        emit AlertAdded(alerts.length - 1, _alertId, _isSuspicious, _confidencePct, _modelVersion, ts);\r\n    }\r\n\r\n    function getAlert(uint256 _index) public view returns (\r\n            string memory alertId,\r\n            string memory sourceType,\r\n            bytes32 logHash,\r\n            uint256 timestamp,\r\n            address reporter,\r\n            bool isSuspicious,\r\n            uint16 confidencePct,\r\n            string memory modelVersion\r\n    ) {\r\n        require(_index < alerts.length, \"Index out of bounds\");\r\n        Alert memory a = alerts[_index];\r\n        return (\r\n            a.alertId,\r\n            a.sourceType,\r\n            a.logHash,\r\n            a.timestamp,\r\n            a.reporter,\r\n            a.isSuspicious,\r\n            a.confidencePct,\r\n            a.modelVersion\r\n        );\r\n    }\r\n\r\n    function getAlertsCount() public view returns (uint256){\r\n        return alerts.length;\r\n    }\r\n}\r\n",
  "sourcePath": "E:\\Major-Project\\contracts\\IDSLogs.sol",
  "compiler": {
    "name": "solc",
    "version": "0.8.19+commit.7dd6d404.Emscripten.clang"
  },
  "schemaVersion": "3.4.16",
  "updatedAt": "2026-01-02T10:35:28.049Z",
  "networkType": "ethereum",
  "devdoc": {
    "kind": "dev",
    "methods": {},
    "version": 1
  },
  "userdoc": {
    "kind": "user",
    "methods": {},
    "version": 1
  }
}